{
  "contractName": "UnitFactory",
  "abi": [
    {
      "constant": true,
      "inputs": [
        {
          "name": "",
          "type": "uint256"
        }
      ],
      "name": "unitToOwner",
      "outputs": [
        {
          "name": "",
          "type": "address"
        }
      ],
      "payable": false,
      "stateMutability": "view",
      "type": "function"
    },
    {
      "constant": true,
      "inputs": [
        {
          "name": "",
          "type": "uint256"
        }
      ],
      "name": "units",
      "outputs": [
        {
          "name": "power",
          "type": "uint32"
        },
        {
          "name": "level",
          "type": "uint32"
        }
      ],
      "payable": false,
      "stateMutability": "view",
      "type": "function"
    },
    {
      "anonymous": false,
      "inputs": [
        {
          "indexed": false,
          "name": "addr",
          "type": "address"
        },
        {
          "indexed": false,
          "name": "unitid",
          "type": "uint256"
        },
        {
          "indexed": false,
          "name": "code",
          "type": "string"
        },
        {
          "indexed": false,
          "name": "power",
          "type": "uint32"
        }
      ],
      "name": "CreateUnit",
      "type": "event"
    },
    {
      "constant": false,
      "inputs": [
        {
          "name": "_code",
          "type": "string"
        }
      ],
      "name": "createUnit",
      "outputs": [],
      "payable": false,
      "stateMutability": "nonpayable",
      "type": "function"
    },
    {
      "constant": true,
      "inputs": [
        {
          "name": "_owner",
          "type": "address"
        }
      ],
      "name": "getUnitIdByOwner",
      "outputs": [
        {
          "name": "",
          "type": "uint256[]"
        }
      ],
      "payable": false,
      "stateMutability": "view",
      "type": "function"
    },
    {
      "constant": false,
      "inputs": [
        {
          "name": "_unitid",
          "type": "uint256"
        }
      ],
      "name": "resetUnit",
      "outputs": [],
      "payable": false,
      "stateMutability": "nonpayable",
      "type": "function"
    },
    {
      "constant": true,
      "inputs": [],
      "name": "getUnitNum",
      "outputs": [
        {
          "name": "",
          "type": "uint256"
        }
      ],
      "payable": false,
      "stateMutability": "view",
      "type": "function"
    },
    {
      "constant": false,
      "inputs": [
        {
          "name": "_unitid",
          "type": "uint256"
        }
      ],
      "name": "battleStartRandom",
      "outputs": [],
      "payable": false,
      "stateMutability": "nonpayable",
      "type": "function"
    },
    {
      "constant": true,
      "inputs": [
        {
          "name": "_unitid",
          "type": "uint256"
        }
      ],
      "name": "getUnitAddr",
      "outputs": [
        {
          "name": "",
          "type": "address"
        }
      ],
      "payable": false,
      "stateMutability": "view",
      "type": "function"
    }
  ],
  "bytecode": "0x608060405234801561001057600080fd5b50610c4b806100206000396000f3fe608060405234801561001057600080fd5b50600436106100885760003560e01c80637f5b53ec1161005b5780637f5b53ec14610252578063bf4f6ca414610270578063e44f854b14610309578063e5fba6cc1461033757610088565b80632e661ffd1461008d57806347ab8ba7146100bb578063605b3b53146101765780637554bd20146101e4575b600080fd5b6100b9600480360360208110156100a357600080fd5b8101908080359060200190929190505050610398565b005b610174600480360360208110156100d157600080fd5b81019080803590602001906401000000008111156100ee57600080fd5b82018360208201111561010057600080fd5b8035906020019184600183028401116401000000008311171561012257600080fd5b91908080601f016020809104026020016040519081016040528093929190818152602001838380828437600081840152601f19601f820116905080830192505050505050509192919290505050610620565b005b6101a26004803603602081101561018c57600080fd5b8101908080359060200190929190505050610837565b604051808273ffffffffffffffffffffffffffffffffffffffff1673ffffffffffffffffffffffffffffffffffffffff16815260200191505060405180910390f35b610210600480360360208110156101fa57600080fd5b810190808035906020019092919050505061086a565b604051808273ffffffffffffffffffffffffffffffffffffffff1673ffffffffffffffffffffffffffffffffffffffff16815260200191505060405180910390f35b61025a6108a7565b6040518082815260200191505060405180910390f35b6102b26004803603602081101561028657600080fd5b81019080803573ffffffffffffffffffffffffffffffffffffffff1690602001909291905050506108b3565b6040518080602001828103825283818151815260200191508051906020019060200280838360005b838110156102f55780820151818401526020810190506102da565b505050509050019250505060405180910390f35b6103356004803603602081101561031f57600080fd5b81019080803590602001909291905050506109d3565b005b6103636004803603602081101561034d57600080fd5b8101908080359060200190929190505050610a96565b604051808363ffffffff1663ffffffff1681526020018263ffffffff1663ffffffff1681526020019250505060405180910390f35b806001600082815260200190815260200160002060009054906101000a900473ffffffffffffffffffffffffffffffffffffffff1673ffffffffffffffffffffffffffffffffffffffff163373ffffffffffffffffffffffffffffffffffffffff161461040457600080fd5b600080838154811061041257fe5b906000526020600020019050610426610bf9565b600080805490509050600181116104a15760006104758460000160049054906101000a900463ffffffff168560000160009054906101000a900463ffffffff160163ffffffff166103e7610ae3565b905060405180604001604052808263ffffffff168152602001600163ffffffff16815250925050610551565b60006104dd8460000160049054906101000a900463ffffffff168560000160009054906101000a900463ffffffff160163ffffffff1683610ae3565b9050600081815481106104ec57fe5b906000526020600020016040518060400160405290816000820160009054906101000a900463ffffffff1663ffffffff1663ffffffff1681526020016000820160049054906101000a900463ffffffff1663ffffffff1663ffffffff16815250509250505b816000015163ffffffff168360000160009054906101000a900463ffffffff1663ffffffff16106106195760016105a38460000160009054906101000a900463ffffffff1663ffffffff166064610ae3565b018360000160008282829054906101000a900463ffffffff160192506101000a81548163ffffffff021916908363ffffffff16021790555082600001600481819054906101000a900463ffffffff168092919060010191906101000a81548163ffffffff021916908363ffffffff160217905550505b5050505050565b610628610b5f565b1561063257600080fd5b6000818051906020012060001c905060006103e7828161064e57fe5b06905060006001600060405180604001604052808563ffffffff168152602001600163ffffffff1681525090806001815401808255809150509060018203906000526020600020016000909192909190915060008201518160000160006101000a81548163ffffffff021916908363ffffffff16021790555060208201518160000160046101000a81548163ffffffff021916908363ffffffff1602179055505050039050336001600083815260200190815260200160002060006101000a81548173ffffffffffffffffffffffffffffffffffffffff021916908373ffffffffffffffffffffffffffffffffffffffff1602179055507f23e2bdae29e0921119d7eb0b6f1225edb9c88162868838b222675c6858d0a91f33828685604051808573ffffffffffffffffffffffffffffffffffffffff1673ffffffffffffffffffffffffffffffffffffffff168152602001848152602001806020018363ffffffff1663ffffffff168152602001828103825284818151815260200191508051906020019080838360005b838110156107f45780820151818401526020810190506107d9565b50505050905090810190601f1680156108215780820380516001836020036101000a031916815260200191505b509550505050505060405180910390a150505050565b60016020528060005260406000206000915054906101000a900473ffffffffffffffffffffffffffffffffffffffff1681565b60006001600083815260200190815260200160002060009054906101000a900473ffffffffffffffffffffffffffffffffffffffff169050919050565b60008080549050905090565b606060008090505b600080549050811015610993578273ffffffffffffffffffffffffffffffffffffffff166001600083815260200190815260200160002060009054906101000a900473ffffffffffffffffffffffffffffffffffffffff1673ffffffffffffffffffffffffffffffffffffffff16141561098857606060016040519080825280602002602001820160405280156109615781602001602082028038833980820191505090505b509050818160008151811061097257fe5b60200260200101818152505080925050506109ce565b8060010190506108bb565b50606060006040519080825280602002602001820160405280156109c65781602001602082028038833980820191505090505b509050809150505b919050565b806001600082815260200190815260200160002060009054906101000a900473ffffffffffffffffffffffffffffffffffffffff1673ffffffffffffffffffffffffffffffffffffffff163373ffffffffffffffffffffffffffffffffffffffff1614610a3f57600080fd5b60006001600084815260200190815260200160002060006101000a81548173ffffffffffffffffffffffffffffffffffffffff021916908373ffffffffffffffffffffffffffffffffffffffff1602179055505050565b60008181548110610aa357fe5b906000526020600020016000915090508060000160009054906101000a900463ffffffff16908060000160049054906101000a900463ffffffff16905082565b600081423385604051602001808481526020018373ffffffffffffffffffffffffffffffffffffffff1673ffffffffffffffffffffffffffffffffffffffff1660601b815260140182815260200193505050506040516020818303038152906040528051906020012060001c81610b5657fe5b06905092915050565b600080600090505b600080549050811015610bf0573373ffffffffffffffffffffffffffffffffffffffff166001600083815260200190815260200160002060009054906101000a900473ffffffffffffffffffffffffffffffffffffffff1673ffffffffffffffffffffffffffffffffffffffff161415610be5576001915050610bf6565b806001019050610b67565b50600090505b90565b6040518060400160405280600063ffffffff168152602001600063ffffffff168152509056fea165627a7a72305820bb5db1928a5dc02d590cdd71cc92a28ac8c10882f9bbe96737fd43c8e87e77eb0029",
  "source": "pragma solidity ^0.5.8;\n\n// ユニット生成\ncontract UnitFactory \n{\n\t// ユニット\n\tstruct Unit\n\t{\n\t\tuint32 power;\n\t\tuint32 level;\n\t}\n\n\tUnit[] public units;\n\tuint constant DEFAULT_POWER_MAX = 999;\n\n\tmapping (uint => address) public unitToOwner;\n\n\tevent CreateUnit(address addr, uint unitid, string code, uint32 power);\n\n\t// 所有者判定\n\tmodifier onlyOwnerOf(uint _unitid)\n\t{\n\t\trequire(msg.sender == unitToOwner[_unitid]);\n\t\t_;\n\t}\n\t\n\t// 乱数取得\n\tfunction randMod(uint _nonce, uint _modulus) internal view returns(uint)\n\t{\n\t\treturn uint(keccak256(abi.encodePacked(now, msg.sender, _nonce))) % _modulus;\n\t}\n\n\t// 既にユニットを所持しているか\n\tfunction _isExistUnit() internal view returns(bool)\n\t{\n\t\tfor( uint i = 0; i < units.length; ++i )\n\t\t{\n\t\t\tif( unitToOwner[i] == msg.sender )\n\t\t\t{\n\t\t\t\treturn true;\n\t\t\t}\n\t\t}\n\n\t\treturn false;\n\t}\n\n\t// ユニット生成\n\tfunction createUnit(string memory _code) public\n\t{\n\t\t// 所持確認\n\t\trequire(!_isExistUnit());\n\n\t\t// 初期文字のハッシュ値から初期パワー計算\n\t\tuint rand = uint(keccak256(bytes(_code)));\n\t\tuint32 pow = uint32(rand % DEFAULT_POWER_MAX);\n\n\t\t// ユニット作成\n\t\tuint id = units.push(Unit(pow, 1/*level*/)) - 1;\n\t\tunitToOwner[id] = msg.sender;\n\n\t\t// イベントログ\n\t\temit CreateUnit(msg.sender, id, _code, pow);\n\t}\n\n\t// 所持ユニットID取得\n\tfunction getUnitIdByOwner(address _owner) external view returns(uint[] memory)\n\t{\n\t\tfor( uint i = 0; i < units.length; ++i )\n\t\t{\n\t\t\tif( unitToOwner[i] == _owner )\n\t\t\t{\n\t\t\t\tuint[] memory result = new uint[](1);\n\t\t\t\tresult[0] = i;\n\t\t\t\treturn result;\n\t\t\t}\n\t\t}\n\t\t\n\t\t// ないので空で返す\n\t\tuint[] memory result = new uint[](0);\n\t\treturn result;\n\t}\n\n\t// 所持ユニット削除\n\tfunction resetUnit(uint _unitid) external onlyOwnerOf(_unitid)\n\t{\n\t\t// storageの削除は大変なようなのでアドレスだけクリア(Unit自体は残る)\n\t\tunitToOwner[_unitid] = address(0x0);\n\t}\n\n\t// ユニット数取得\n\tfunction getUnitNum() external view returns(uint)\n\t{\n\t\treturn units.length;\n\t}\n\n\t// 対戦開始（対戦相手ランダム）\n\tfunction battleStartRandom(uint _unitid) external onlyOwnerOf(_unitid) \n\t{\n\t\tUnit storage my_unit = units[_unitid];\n\t\tUnit memory opponent;\n\n\t\t// 対戦相手選択\n\t\tuint units_length = units.length;\n\t\tif( units_length <= 1 )\n\t\t{\n\t\t\t// 他の登録ユニットがいないので生成する\n\t\t\tuint32 pow = uint32(randMod((my_unit.power + my_unit.level), DEFAULT_POWER_MAX));\n\t\t\topponent = Unit(pow, 1/*level*/);\n\t\t}\n\t\telse\n\t\t{\n\t\t\t// 乱数を自分のユニットのpowerとlevelからハッシュ値で求める\n\t\t\tuint rand_idx = randMod((my_unit.power + my_unit.level), units_length);\n\t\t\topponent = units[rand_idx];\n\t\t}\n\n\t\t// 戦闘（ひとまずpower値で比較）\n\t\tif( my_unit.power >= opponent.power )\n\t\t{\n\t\t\t// 勝利したらレベルを上げてpowerに１〜１００加算\n\t\t\tmy_unit.power += uint32(randMod(my_unit.power, 100)) + 1; \n\t\t\tmy_unit.level++;\n\t\t}\n\t}\n\n\tfunction getUnitAddr(uint _unitid) external view returns(address)\n\t{\n\t\treturn unitToOwner[_unitid];\n\t}\n}\n",
  "sourcePath": "/Users/user/Desktop/project/battle/contracts/UnitFactory.sol",
  "compiler": {
    "name": "solc",
    "version": "0.5.8+commit.23d335f2.Emscripten.clang"
  },
  "schemaVersion": "3.0.14",
  "updatedAt": "2019-09-08T14:50:23.510Z",
  "devdoc": {
    "methods": {}
  },
  "userdoc": {
    "methods": {}
  }
}