{
  "contractName": "UnitFactory",
  "abi": [
    {
      "constant": true,
      "inputs": [
        {
          "name": "",
          "type": "uint256"
        }
      ],
      "name": "unitToOwner",
      "outputs": [
        {
          "name": "",
          "type": "address"
        }
      ],
      "payable": false,
      "stateMutability": "view",
      "type": "function"
    },
    {
      "constant": true,
      "inputs": [
        {
          "name": "",
          "type": "uint256"
        }
      ],
      "name": "units",
      "outputs": [
        {
          "name": "power",
          "type": "uint32"
        },
        {
          "name": "level",
          "type": "uint32"
        }
      ],
      "payable": false,
      "stateMutability": "view",
      "type": "function"
    },
    {
      "anonymous": false,
      "inputs": [
        {
          "indexed": false,
          "name": "addr",
          "type": "address"
        },
        {
          "indexed": false,
          "name": "unitid",
          "type": "uint256"
        },
        {
          "indexed": false,
          "name": "code",
          "type": "string"
        },
        {
          "indexed": false,
          "name": "power",
          "type": "uint32"
        }
      ],
      "name": "CreateUnit",
      "type": "event"
    },
    {
      "constant": false,
      "inputs": [
        {
          "name": "_code",
          "type": "string"
        }
      ],
      "name": "createUnit",
      "outputs": [
        {
          "name": "",
          "type": "uint256"
        }
      ],
      "payable": false,
      "stateMutability": "nonpayable",
      "type": "function"
    },
    {
      "constant": true,
      "inputs": [
        {
          "name": "_owner",
          "type": "address"
        }
      ],
      "name": "getUnitIdByOwner",
      "outputs": [
        {
          "name": "",
          "type": "uint256[]"
        }
      ],
      "payable": false,
      "stateMutability": "view",
      "type": "function"
    },
    {
      "constant": false,
      "inputs": [
        {
          "name": "_unitid",
          "type": "uint256"
        }
      ],
      "name": "resetUnit",
      "outputs": [],
      "payable": false,
      "stateMutability": "nonpayable",
      "type": "function"
    },
    {
      "constant": true,
      "inputs": [],
      "name": "getUnitNum",
      "outputs": [
        {
          "name": "",
          "type": "uint256"
        }
      ],
      "payable": false,
      "stateMutability": "view",
      "type": "function"
    },
    {
      "constant": true,
      "inputs": [
        {
          "name": "_unitid",
          "type": "uint256"
        }
      ],
      "name": "getUnitAddr",
      "outputs": [
        {
          "name": "",
          "type": "address"
        }
      ],
      "payable": false,
      "stateMutability": "view",
      "type": "function"
    }
  ],
  "bytecode": "0x608060405234801561001057600080fd5b506108ff806100206000396000f3fe608060405234801561001057600080fd5b506004361061007d5760003560e01c80637f5b53ec1161005b5780637f5b53ec1461022d578063bf4f6ca41461024b578063e44f854b146102e4578063e5fba6cc146103125761007d565b806347ab8ba714610082578063605b3b53146101515780637554bd20146101bf575b600080fd5b61013b6004803603602081101561009857600080fd5b81019080803590602001906401000000008111156100b557600080fd5b8201836020820111156100c757600080fd5b803590602001918460018302840111640100000000831117156100e957600080fd5b91908080601f016020809104026020016040519081016040528093929190818152602001838380828437600081840152601f19601f820116905080830192505050505050509192919290505050610373565b6040518082815260200191505060405180910390f35b61017d6004803603602081101561016757600080fd5b810190808035906020019092919050505061058d565b604051808273ffffffffffffffffffffffffffffffffffffffff1673ffffffffffffffffffffffffffffffffffffffff16815260200191505060405180910390f35b6101eb600480360360208110156101d557600080fd5b81019080803590602001909291905050506105c0565b604051808273ffffffffffffffffffffffffffffffffffffffff1673ffffffffffffffffffffffffffffffffffffffff16815260200191505060405180910390f35b6102356105fd565b6040518082815260200191505060405180910390f35b61028d6004803603602081101561026157600080fd5b81019080803573ffffffffffffffffffffffffffffffffffffffff169060200190929190505050610609565b6040518080602001828103825283818151815260200191508051906020019060200280838360005b838110156102d05780820151818401526020810190506102b5565b505050509050019250505060405180910390f35b610310600480360360208110156102fa57600080fd5b8101908080359060200190929190505050610729565b005b61033e6004803603602081101561032857600080fd5b81019080803590602001909291905050506107ec565b604051808363ffffffff1663ffffffff1681526020018263ffffffff1663ffffffff1681526020019250505060405180910390f35b600061037d610839565b1561038757600080fd5b6000828051906020012060001c905060006103e782816103a357fe5b06905060008060405180604001604052808463ffffffff168152602001600163ffffffff1681525090806001815401808255809150509060018203906000526020600020016000909192909190915060008201518160000160006101000a81548163ffffffff021916908363ffffffff16021790555060208201518160000160046101000a81548163ffffffff021916908363ffffffff16021790555050509050336001600083815260200190815260200160002060006101000a81548173ffffffffffffffffffffffffffffffffffffffff021916908373ffffffffffffffffffffffffffffffffffffffff1602179055507f23e2bdae29e0921119d7eb0b6f1225edb9c88162868838b222675c6858d0a91f33828785604051808573ffffffffffffffffffffffffffffffffffffffff1673ffffffffffffffffffffffffffffffffffffffff168152602001848152602001806020018363ffffffff1663ffffffff168152602001828103825284818151815260200191508051906020019080838360005b8381101561054557808201518184015260208101905061052a565b50505050905090810190601f1680156105725780820380516001836020036101000a031916815260200191505b509550505050505060405180910390a1809350505050919050565b60016020528060005260406000206000915054906101000a900473ffffffffffffffffffffffffffffffffffffffff1681565b60006001600083815260200190815260200160002060009054906101000a900473ffffffffffffffffffffffffffffffffffffffff169050919050565b60008080549050905090565b606060008090505b6000805490508110156106e9578273ffffffffffffffffffffffffffffffffffffffff166001600083815260200190815260200160002060009054906101000a900473ffffffffffffffffffffffffffffffffffffffff1673ffffffffffffffffffffffffffffffffffffffff1614156106de57606060016040519080825280602002602001820160405280156106b75781602001602082028038833980820191505090505b50905081816000815181106106c857fe5b6020026020010181815250508092505050610724565b806001019050610611565b506060600060405190808252806020026020018201604052801561071c5781602001602082028038833980820191505090505b509050809150505b919050565b806001600082815260200190815260200160002060009054906101000a900473ffffffffffffffffffffffffffffffffffffffff1673ffffffffffffffffffffffffffffffffffffffff163373ffffffffffffffffffffffffffffffffffffffff161461079557600080fd5b60006001600084815260200190815260200160002060006101000a81548173ffffffffffffffffffffffffffffffffffffffff021916908373ffffffffffffffffffffffffffffffffffffffff1602179055505050565b600081815481106107f957fe5b906000526020600020016000915090508060000160009054906101000a900463ffffffff16908060000160049054906101000a900463ffffffff16905082565b600080600090505b6000805490508110156108ca573373ffffffffffffffffffffffffffffffffffffffff166001600083815260200190815260200160002060009054906101000a900473ffffffffffffffffffffffffffffffffffffffff1673ffffffffffffffffffffffffffffffffffffffff1614156108bf5760019150506108d0565b806001019050610841565b50600090505b9056fea165627a7a723058208e3693ff3e31a86a6245b8508ef8b2a04d6f5c817917fab3bfffffb1e94b77590029",
  "source": "pragma solidity ^0.5.8;\n\n// ユニット生成\ncontract UnitFactory \n{\n\t// ユニット\n\tstruct Unit\n\t{\n\t\tuint32 power;\n\t\tuint32 level;\n\t}\n\n\tUnit[] public units;\n\tuint constant DEFAULT_POWER_MAX = 999;\n\n\tmapping (uint => address) public unitToOwner;\n\n\tevent CreateUnit(address addr, uint unitid, string code, uint32 power);\n\n\tmodifier onlyOwnerOf(uint _unitid)\n\t{\n\t\trequire(msg.sender == unitToOwner[_unitid]);\n\t\t_;\n\t}\n\n\tfunction _isExistUnit() internal view returns(bool)\n\t{\n\t\tfor( uint i = 0; i < units.length; ++i )\n\t\t{\n\t\t\tif( unitToOwner[i] == msg.sender )\n\t\t\t{\n\t\t\t\treturn true;\n\t\t\t}\n\t\t}\n\n\t\treturn false;\n\t}\n\n\t// ユニット生成\n\tfunction createUnit(string memory _code) public returns(uint)\n\t{\n\t\t// 所持確認\n\t\trequire(!_isExistUnit());\n\n\t\t// 初期文字のハッシュ値から初期パワー計算\n\t\tuint rand = uint(keccak256(bytes(_code)));\n\t\tuint32 pow = uint32(rand % DEFAULT_POWER_MAX);\n\n\t\t// ユニット作成\n\t\tuint id = units.push(Unit(pow, 1/*level*/));\n\t\tunitToOwner[id] = msg.sender;\n\n\t\t// イベントログ\n\t\temit CreateUnit(msg.sender, id, _code, pow);\n\n\t\treturn id;\n\t}\n\n\t// 所持ユニットID取得\n\tfunction getUnitIdByOwner(address _owner) external view returns(uint[] memory)\n\t{\n\t\tfor( uint i = 0; i < units.length; ++i )\n\t\t{\n\t\t\tif( unitToOwner[i] == _owner )\n\t\t\t{\n\t\t\t\tuint[] memory result = new uint[](1);\n\t\t\t\tresult[0] = i;\n\t\t\t\treturn result;\n\t\t\t}\n\t\t}\n\t\t\n\t\tuint[] memory result = new uint[](0);\n\t\treturn result;\n\t}\n\n\t// 所持ユニット削除\n\tfunction resetUnit(uint _unitid) external onlyOwnerOf(_unitid)\n\t{\n\t\t// storageの削除は大変なようなのでアドレスだけクリア(Unit自体は残る)\n\t\tunitToOwner[_unitid] = address(0x0);\n\t}\n\n\t// ユニット数取得\n\tfunction getUnitNum() external view returns(uint)\n\t{\n\t\treturn units.length;\n\t}\n\n\tfunction getUnitAddr(uint _unitid) external view returns(address)\n\t{\n\t\treturn unitToOwner[_unitid];\n\t}\n}\n",
  "sourcePath": "/Users/user/Desktop/project/battle/contracts/UnitFactory.sol",
  "compiler": {
    "name": "solc",
    "version": "0.5.8+commit.23d335f2.Emscripten.clang"
  },
  "schemaVersion": "3.0.14",
  "updatedAt": "2019-09-07T16:43:13.424Z",
  "devdoc": {
    "methods": {}
  },
  "userdoc": {
    "methods": {}
  }
}