{
  "contractName": "UnitFactory",
  "abi": [
    {
      "constant": true,
      "inputs": [
        {
          "name": "",
          "type": "uint256"
        }
      ],
      "name": "unitToOwner",
      "outputs": [
        {
          "name": "",
          "type": "address"
        }
      ],
      "payable": false,
      "stateMutability": "view",
      "type": "function"
    },
    {
      "constant": true,
      "inputs": [
        {
          "name": "",
          "type": "uint256"
        }
      ],
      "name": "units",
      "outputs": [
        {
          "name": "power",
          "type": "uint32"
        },
        {
          "name": "level",
          "type": "uint32"
        }
      ],
      "payable": false,
      "stateMutability": "view",
      "type": "function"
    },
    {
      "constant": true,
      "inputs": [
        {
          "name": "_owner",
          "type": "address"
        }
      ],
      "name": "getUnitIdByOwner",
      "outputs": [
        {
          "name": "",
          "type": "uint256[]"
        }
      ],
      "payable": false,
      "stateMutability": "view",
      "type": "function"
    },
    {
      "constant": false,
      "inputs": [
        {
          "name": "_unitid",
          "type": "uint256"
        }
      ],
      "name": "resetUnit",
      "outputs": [],
      "payable": false,
      "stateMutability": "nonpayable",
      "type": "function"
    }
  ],
  "bytecode": "0x608060405234801561001057600080fd5b50610476806100206000396000f3fe608060405234801561001057600080fd5b506004361061004c5760003560e01c8063605b3b5314610051578063bf4f6ca4146100bf578063e44f854b14610158578063e5fba6cc14610186575b600080fd5b61007d6004803603602081101561006757600080fd5b81019080803590602001909291905050506101e7565b604051808273ffffffffffffffffffffffffffffffffffffffff1673ffffffffffffffffffffffffffffffffffffffff16815260200191505060405180910390f35b610101600480360360208110156100d557600080fd5b81019080803573ffffffffffffffffffffffffffffffffffffffff16906020019092919050505061021a565b6040518080602001828103825283818151815260200191508051906020019060200280838360005b83811015610144578082015181840152602081019050610129565b505050509050019250505060405180910390f35b6101846004803603602081101561016e57600080fd5b810190808035906020019092919050505061033a565b005b6101b26004803603602081101561019c57600080fd5b81019080803590602001909291905050506103fd565b604051808363ffffffff1663ffffffff1681526020018263ffffffff1663ffffffff1681526020019250505060405180910390f35b60016020528060005260406000206000915054906101000a900473ffffffffffffffffffffffffffffffffffffffff1681565b606060008090505b6000805490508110156102fa578273ffffffffffffffffffffffffffffffffffffffff166001600083815260200190815260200160002060009054906101000a900473ffffffffffffffffffffffffffffffffffffffff1673ffffffffffffffffffffffffffffffffffffffff1614156102ef57606060016040519080825280602002602001820160405280156102c85781602001602082028038833980820191505090505b50905081816000815181106102d957fe5b6020026020010181815250508092505050610335565b806001019050610222565b506060600060405190808252806020026020018201604052801561032d5781602001602082028038833980820191505090505b509050809150505b919050565b806001600082815260200190815260200160002060009054906101000a900473ffffffffffffffffffffffffffffffffffffffff1673ffffffffffffffffffffffffffffffffffffffff163373ffffffffffffffffffffffffffffffffffffffff16146103a657600080fd5b60006001600084815260200190815260200160002060006101000a81548173ffffffffffffffffffffffffffffffffffffffff021916908373ffffffffffffffffffffffffffffffffffffffff1602179055505050565b6000818154811061040a57fe5b906000526020600020016000915090508060000160009054906101000a900463ffffffff16908060000160049054906101000a900463ffffffff1690508256fea165627a7a723058204ece73cc52eca10bd7f08e39135a3f5ecb30e3e16f55da94a900c1f6654f6ad00029",
  "source": "pragma solidity ^0.5.8;\n\n// ユニット生成\ncontract UnitFactory \n{\n\t// ユニット\n\tstruct Unit\n\t{\n\t\tuint32 power;\n\t\tuint32 level;\n\t}\n\n\tUnit[] public units;\n\tuint constant DEFAULT_POWER_MAX = 999;\n\n\tmapping (uint => address) public unitToOwner;\n\n\n\tmodifier onlyOwnerOf(uint _unitid)\n\t{\n\t\trequire(msg.sender == unitToOwner[_unitid]);\n\t\t_;\n\t}\n\n\tfunction _isExistUnit() internal view returns(bool)\n\t{\n\t\tfor( uint i = 0; i < units.length; ++i )\n\t\t{\n\t\t\tif( unitToOwner[i] == msg.sender )\n\t\t\t{\n\t\t\t\treturn true;\n\t\t\t}\n\t\t}\n\n\t\treturn false;\n\t}\n\n\t// ユニット生成\n\tfunction _createUnit(string memory _code) internal\n\t{\n\t\t// 所持確認\n\t\trequire(_isExistUnit());\n\n\t\t// 初期文字のハッシュ値から初期パワー計算\n\t\tuint rand = uint(keccak256(bytes(_code)));\n\t\tuint32 pow = uint32(rand % DEFAULT_POWER_MAX);\n\n\t\t// ユニット作成\n\t\tuint id = units.push(Unit(pow, 1/*level*/));\n\t\tunitToOwner[id] = msg.sender;\n\t}\n\n\t// 所持ユニットID取得\n\tfunction getUnitIdByOwner(address _owner) external view returns(uint[] memory)\n\t{\n\t\tfor( uint i = 0; i < units.length; ++i )\n\t\t{\n\t\t\tif( unitToOwner[i] == _owner )\n\t\t\t{\n\t\t\t\tuint[] memory result = new uint[](1);\n\t\t\t\tresult[0] = i;\n\t\t\t\treturn result;\n\t\t\t}\n\t\t}\n\t\t\n\t\tuint[] memory result = new uint[](0);\n\t\treturn result;\n\t}\n\n\t// 所持ユニット削除\n\tfunction resetUnit(uint _unitid) external onlyOwnerOf(_unitid)\n\t{\n\t\t// storageの削除は大変なようなのでアドレスだけクリア(Unit自体は残る)\n\t\tunitToOwner[_unitid] = address(0x0);\n\t}\n}\n",
  "sourcePath": "/Users/user/Desktop/project/battle/contracts/UnitFactory.sol",
  "compiler": {
    "name": "solc",
    "version": "0.5.8+commit.23d335f2.Emscripten.clang"
  },
  "schemaVersion": "3.0.14",
  "updatedAt": "2019-09-01T14:23:41.552Z",
  "devdoc": {
    "methods": {}
  },
  "userdoc": {
    "methods": {}
  }
}